:02000004F90001
:1000000097210000938101D417210000130181552D
:100010001715000013050514971500009385851327
:100020001386C18163FCC5008322050023A055000F
:100030001305450093854500E3E8C5FE1385C1819E
:10004000938501826378B5002320050013054500E0
:10005000E36CB5FEEF000001EF00407D6F00000093
:0400600067800000B5
:10006400130101FF23248100232021011714000020
:100074001304040E171900001309890D330989406C
:10008400232611002322910013592940630E0900ED
:100094009304000083270400938414001304440091
:1000A400E7800700E31899FE171400001304440ABC
:1000B400171900001309C909330989401359294044
:1000C400630E090093040000832704009384140042
:1000D40013044400E7800700E31899FE8320C1005D
:1000E4000324810083244100032901001301010139
:1000F4006780000003254500135505011375F50FAE
:1001040067800000130101FF2326110023248100CE
:1001140023229100130405009384050013050400B1
:10012400EFF05FFDE30C05FE232094008320C10063
:10013400032481008324410013010101678000002E
:10014400130101FF2326110023248100232291009F
:10015400930405001384050083450400638A0500A5
:100164001304140013850400EFF0DFF96FF0DFFED1
:100174008320C10003248100832441001301010171
:1001840067800000B7470F0093870724B3D5F502B3
:10019400B7C70000938787FF3306F600832706005E
:1001A4003385A5023305F50083270600B307F54020
:1001B400E3DC07FE67800000130101FF2326110022
:1001C4002324810023229100930405001304C00119
:1001D4006F008002B3D7840013F7F700B71700F954
:1001E40093870715B387E70083C50700370501F830
:1001F400EFF05FF11304C4FFE35E04FC9305A00079
:10020400370501F8EFF01FF09305D000370501F82A
:10021400EFF05FEF8320C1000324810083244100B9
:100224001301010167800000130101FF232611005F
:1002340093050500370501F8EFF09FF09305A00042
:10024400370501F8EFF01FEC9305D000370501F8EE
:10025400EFF05FEB8320C100130101016780000010
:10026400130101FF232611002324810013840500B8
:1002740093050500370501F8EFF09FEC1305040022
:10028400EFF09FF38320C1000324810013010101D7
:1002940067800000130101FF232611009375F50FF9
:1002A400370501F8EFF01FE68320C10013010101B7
:1002B40067800000130101FF23261100232481001D
:1002C4001304050083450400638A05001304140025
:1002D400370501F8EFF01FE36FF0DFFE8320C10064
:1002E400032481001301010167800000130101FD53
:1002F4002326110223248102232291029304050060
:1003040063460500130401006F00C0021305D00208
:10031400EFF05FF8B30490406FF0DFFE1307A00026
:10032400B3E7E402938707032300F400B3C4E402B1
:1003340013041400E39404FE93070100E300F4FEA5
:100344006F0000011304F4FF03450400EFF09FF471
:1003540093070100E318F4FE8320C1020324810201
:10036400832441021301010367800000130101FF8C
:1003740023261100130700009307700063C0E702EF
:1003840093162700930700FFB397D700B377F500C0
:1003940063860700130717006FF01FFEEFF0DFE11D
:1003A4008320C1001301010167800000130101FFD4
:1003B40023261100B70610F883A786003707F9FF34
:1003C4001307F7FFB3F7E700131505013707070015
:1003D4003375E5003365F50023A4A600371500F94D
:1003E40013054516EFF05FE48320C10013010101FA
:1003F40067800000130101FF232611001375F50324
:10040400B70710F823AEA704371500F91305C5176D
:10041400EFF09FE18320C100130101016780000018
:10042400130101FF23261100B70710F83707010055
:100434001307F7FF23A4E7181307F0FF23A2E71815
:1004440023A0A71837F70000130787AE23A8E700F7
:100454003767005E1307870C23A6E70003A787000E
:100464001377F7BF9395950093F50520B3E5E50061
:1004740023A4B700371500F913050519EFF0DFDAE7
:100484008320C1001301010167800000130101FFF3
:10049400232611002324810023229100B70410F89D
:1004A40003A48400B707008013C7F7FF3374E40084
:1004B400B367F40023A4F4003706B0F8B7F5FA02E2
:1004C4009385050813051000EFF0DFCB23A4840007
:1004D400371500F91305851AEFF01FD58320C100E5
:1004E400032481008324410013010101678000007B
:1004F400130101FF2326110023248100371500F97D
:100504001305051DEFF05FD2370410F88325840628
:10051400371500F91305851EEFF09FD48325C40613
:10052400371500F913054520EFF09FD38325840880
:10053400371500F91305C521EFF09FD28325C408B0
:10054400371500F91305C522EFF09FD18325440B1D
:10055400371500F913050524EFF09FD08325840B8C
:10056400371500F913054525EFF09FCF8325C40BFC
:10057400371500F913054527EFF09FCE8325C409ED
:10058400371500F913050529EFF09FCD83250407DE
:10059400371500F91305C52AEFF09FCC832504080D
:1005A400371500F91305C52CEFF09FCB83254408BC
:1005B400371500F91305852EEFF09FCA8320C1007B
:1005C400032481001301010167800000130101FF6E
:1005D40023261100EFF09FDD1305C000EFF09FE12B
:1005E4008320C1001301010167800000130101FC95
:1005F400232E1100232C8100232A9100930405004B
:100604002322B1022324C1022326D1022328E1029A
:10061400232AF102232C0103232E11039307410201
:100624002326F100130400006F00C0018327C100DA
:10063400138747002326E10003A50700EFF09FC5B9
:1006440013041400B387840003C507006306050878
:1006540093075002630EF502EFF0DFC36FF05FFE05
:100664008327C100138747002326E10003A5070061
:10067400EFF05FC46FF0DFFC8327C10013874700EE
:100684002326E10003A50700EFF05FC66FF05FFBD0
:1006940013041400B387840083C70700E38207FAB6
:1006A40013073006E384E7F813073007E38AE7FA11
:1006B40013074006E382E7FC13078007E39AE7FC8D
:1006C4008327C100138747002326E10003A5070001
:1006D400EFF0DFC96FF0DFF68320C101032481014D
:1006E400832441011301010467800000130101FF09
:1006F40023261100B70710F8370701001307F7FF87
:1007040023AAE7201307F0FF23A8E72037F7000008
:10071400130787AE23AEE7203767005E1307870C05
:1007240023ACE7203707A8C09306471623A2D72295
:100734001307571623A4E722370715271307175261
:1007440023A6E722370764001307470623A6E720FA
:100754001307400623A0E72223A8E72223A40720A7
:1007640023A207201307100023A4E72023A40720B3
:10077400371500F913054530EFF01FAB8320C10096
:100784001301010167800000130101FF23261100FA
:100794002324810023229100370410F893041000CD
:1007A40023209420371500F913054532EFF0DFA715
:1007B4003706B0F8B7F5FA0293850508130510005B
:1007C400EFF05F9C23200420371500F9130505344E
:1007D400EFF09FA523229420930510001305000039
:1007E400EFF01FC4EFF09FCA3706B0F8B7F5FA026E
:1007F4009385050837C52D001305056CEFF09F9808
:10080400EFF01FCF6FF05FFE93074000630AF5001F
:1008140013070000B70710F823AAE7226780000037
:10082400130730006FF01FFF130101FF232611008F
:1008340023248100371500F91305C535EFF0DF9E39
:10084400EF000072371500F913058539EFF0DF9DCD
:10085400EF00805113040500130740006302E50212
:1008640013072000630CE504130710006306E5007A
:10087400930500006F0000019305A0006F00800045
:100884009305803E371500F91305C53AEFF01FD6DE
:10089400371500F91305453CEFF01F9913050400C3
:1008A400EFF09FF69305100013051000EFF05FB70B
:1008B40013050400EFF09FD1EFF01FED9305400600
:1008C4006FF05FFC03254500135505011375F50F03
:1008D40067800000130101FF2326110023248100F7
:1008E40023229100130405009384050013050400DA
:1008F400EFF05FFDE30C05FE232094008320C1008C
:100904000324810083244100130101016780000056
:10091400130101FF232611002324810023229100C7
:10092400930405001384050083450400638A0500CD
:100934001304140013850400EFF0DFF96FF0DFFEF9
:100944008320C10003248100832441001301010199
:1009540067800000B7470F0093870724B3D5F502DB
:10096400B7C70000938787FF3306F6008327060086
:100974003385A5023305F50083270600B307F54048
:10098400E3DC07FE67800000130101FF232611004A
:100994002324810023229100930405001304C00141
:1009A4006F008002B3D7840013F7F700B71700F97C
:1009B40093870715B387E70083C50700370501F858
:1009C400EFF05FF11304C4FFE35E04FC9305A000A1
:1009D400370501F8EFF01FF09305D000370501F853
:1009E400EFF05FEF8320C1000324810083244100E2
:1009F4001301010167800000130101FF2326110088
:100A040093050500370501F8EFF09FF09305A0006A
:100A1400370501F8EFF01FEC9305D000370501F816
:100A2400EFF05FEB8320C100130101016780000038
:100A3400130101FF232611009375F50F370501F803
:100A4400EFF05FE98320C10013010101678000001A
:100A5400130101FF23261100232481001304050040
:100A640083450400638A050013041400370501F864
:100A7400EFF05FE66FF0DFFE8320C1000324810006
:100A84001301010167800000130101FD23261102F7
:100A94002324810223229102930405006346050066
:100AA400130401006F00C0021305D002EFF05FF8D9
:100AB400B30490406FF0DFFE1307A000B3E7E40235
:100AC400938707032300F400B3C4E402130414005F
:100AD400E39404FE93070100E300F4FE6F000001B9
:100AE4001304F4FF03450400EFF09FF4930701009F
:100AF400E318F4FE8320C10203248102832441020B
:100B04001301010367800000130101FF2326110074
:100B1400130700009307700063C0E70293162700D1
:100B2400930700FFB397D700B377F50063860700F8
:100B3400130717006FF01FFEEFF01FE58320C100BD
:100B44001301010167800000130101FC232E110031
:100B5400232C8100232A9100930405002322B1024F
:100B64002324C1022326D1022328E102232AF102ED
:100B7400232C0103232E1103930741022326F100A2
:100B8400130400006F00C0018327C10013874700CE
:100B94002326E10003A50700EFF09FE913041400E6
:100BA400B387840003C50700630605089307500252
:100BB400630EF502EFF0DFE76FF05FFE8327C100FD
:100BC400138747002326E10003A50700EFF05FE841
:100BD4006FF0DFFC8327C100138747002326E10061
:100BE40003A50700EFF05FEA6FF05FFB1304140046
:100BF400B387840083C70700E38207FA130730062C
:100C0400E384E7F813073007E38AE7FA130740069B
:100C1400E382E7FC13078007E39AE7FC8327C1001C
:100C2400138747002326E10003A50700EFF0DFED5B
:100C34006FF0DFF68320C101032481018324410185
:100C44001301010467800000130101FF2326110032
:100C5400232481009375F501370410F813058410DB
:100C6400EF0080409305100013054410EF00C03FCF
:100C74003706B0F8B7F5FA02938505081305803EE8
:100C8400EFF05FCD13050411EF00803E8320C10017
:100C9400032481001301010167800000130101FF97
:100CA400232611002324810023229100938405002C
:100CB4009375F501370410F813058410EF00C03A5A
:100CC400938504001305C410EF00003A9305200037
:100CD40013054410EF0040398320C1000324810030
:100CE400832441001301010167800000130101FF07
:100CF40023261100EFF05FF58320C10013010101E9
:100D040067800000130101FF23261100EFF01FF993
:100D14003706B0F8B7F5FA029385050813054006BF
:100D2400EFF05FC38320C10013010101678000005D
:100D3400130101FF232611009315050193D5050125
:100D44001305F001EFF09FF53706B0F8B7F5FA0296
:100D54009385050813054006EFF0DFBF8320C1002B
:100D64001301010167800000130101FE232E11000D
:100D7400232C8100232A91002328210123263101D9
:100D8400232441012322510113050000EFF01FF633
:100D9400930A050013054000EFF05FF5130A050000
:100DA40013059000EFF09FF4930905001305A000CC
:100DB400EFF0DFF31309050013058001EFF01FF3D3
:100DC400930405001305A001EFF05FF2130405007E
:100DD40093850A00371500F91305053EEFF0DFD6B9
:100DE40093050A00371500F91305C53EEFF0DFD56A
:100DF40093850900371500F91305853FEFF0DFD41B
:100E040093050900371500F913054540EFF0DFD3CA
:100E140093850400371500F913050541EFF0DFD27F
:100E240093050400371500F913050542EFF0DFD1EF
:100E34001305A001EFF09FEB130405009377450021
:100E4400639007023706B0F8B7F5FA0293850508F0
:100E54003725000013050571EFF0DFAF6FF05FFD7C
:100E6400371500F91305C542EFF01FCE371500F909
:100E74001305C533EFF05FB893770403130700023B
:100E84006388E702130700016380E7086396070C91
:100E9400937784006386070A93050400371500F9E5
:100EA4001305854FEFF05FCA130510006F000002B1
:100EB40093778400638E070293050400371500F9C5
:100EC40013058543EFF05FC8130540008320C1017B
:100ED4000324810183244101032901018329C100E1
:100EE400032A8100832A4100130101026780000064
:100EF40093050400371500F913058546EFF0DFC4A8
:100F0400130540006FF09FFC93778400638E070005
:100F140093050400371500F913058549EFF0DFC286
:100F2400130520006FF09FFA93050400371500F9AC
:100F34001305854CEFF05FC1130520006FF01FF916
:100F440093050400371500F913054552EFF0DFBF90
:100F5400130510006FF09FF7130520006FF01FF7C3
:100F6400130101FF23261100232481002322910071
:100F740013050000EFF09FD713050000EFF05FDBCF
:100F8400B795000013050000EFF0DFD73706B0F87F
:100F9400B7F4FA029385040837C400001305043536
:100FA400EFF05F9BB715000013050000EFF09FD52D
:100FB4003706B0F89385040813050435EFF09F99BC
:100FC40013050000EFF09FD2B7140000138534A47A
:100FD400EFF01FD637840000930514011305B00108
:100FE400EFF05FD2B7D500009385F5731305C00108
:100FF400EFF05FD1138544D0EFF09FD39305B42075
:1010040013050001EFF01FD08320C10003248100E9
:10101400832441001301010167800000032545007A
:10102400135505011375F50F67800000130101FFC7
:101034002326110023248100232291001304050098
:101044009384050013050400EFF05FFDE30C05FE37
:10105400232094008320C1000324810083244100C1
:1010640013010101678000002320B50067800000A0
:101074000325050067800000130101FF23261100EA
:1010840023248100130405009375F50F370501F837
:10109400EFF0DFF9130504008320C100032481006D
:1010A4001301010167800000130101FF23261100D1
:1010B400232481001304050003450400630805008C
:1010C400EFF09FFB130414006FF01FFF1305A00043
:1010D400EFF09FFA130500008320C1000324810070
:1010E4001301010167800000130101FF2326110091
:1010F4002324810023229100930405003704004037
:101104001304F4FF3384850013142400634604029B
:10111400B3D7840013F7F700B71700F993870715BF
:10112400B387E70083C50700370501F8EFF01FF028
:101134001304C4FF6FF09FFD8320C10003248100CA
:0C114400832441001301010167800000BA
:1011500030313233343536373839414243444546ED
:1011600000000000496E666F203A20536574204DE0
:1011700061632053706565642E000000496E666FE0
:10118000203A20536574204D6163204950472E005A
:10119000496E666F203A20536574204D616320418B
:1011A0006464726573732E00496E666F203A204D39
:1011B000616320526573657420537461746973743C
:1011C00069637320436F756E746572732E0000003F
:1011D0002D2D2D2D2D2D2D2D2D2D2D2D2D2D2D2D3F
:1011E0002D2D2D2D00000000614672616D65735438
:1011F00072616E736D69747465644F4B203A203070
:1012000078000000614672616D65735265636569BF
:101210007665644F4B203A20307800006966496E4D
:101220004572726F7273203A2030780069664F758C
:10123000744572726F7273203A203078000000009B
:1012400065746865725374617473506B7473203A7B
:101250002030780065746865725374617473556EDC
:1012600064657273697A65506B7473203A203078C4
:1012700000000000657468657253746174734F7682
:10128000657273697A65506B7473203A2030780008
:1012900061527846696C7465724672616D6573451A
:1012A00072726F7273203A2030780000614672616A
:1012B0006D65436865636B53657175656E63654500
:1012C00072726F7273203A20307800006154785047
:1012D000415553454D41434374726C4672616D658F
:1012E00073203A20307800006152785041555345C0
:1012F0004D41434374726C4672616D6573203A20B0
:1013000030780000496E666F203A20536574205093
:1013100061747465726E2047656E657261746F7278
:101320002E000000496E666F203A2041737365728B
:1013300074206D6163207265736574200000000085
:10134000496E666F203A204465617373657274203C
:101350006D61632072657365742000003D3D3D2022
:1013600020205453454D4143204578616D706C6594
:101370002044657369676E20696E204C696E6B65E9
:10138000642D506172746E6572204D6F646520200B
:10139000203D3D3D0000000057616974696E672083
:1013A0004C696E6B2055702E2E2E00004C696E6BB2
:1013B0002053706565643A20092564204D6270737E
:1013C0000A0D0000537769746368696E672052588C
:1013D00020636C6F636B206D75782E2E2E000000DD
:1013E000424D43523A20307825780000414E415218
:1013F0003A20307825780000474243523A2030782E
:1014000025780000474253523A2030782578000072
:101410005048594352313A20307825780000000076
:1014200050485953523A2030782578004C696E6BF9
:1014300065642055700000004C696E6B205061722D
:10144000746E65722046756C6C206475706C65787E
:101450002031303030204D62707320526567323653
:1014600020307825780000004C696E6B2050617246
:10147000746E65722068616C66206475706C657846
:101480002031303030204D62707320526567323623
:1014900020307825780000004C696E6B2050617216
:1014A000746E65722046756C6C206475706C65781E
:1014B00020313030204D6270732052656732362003
:1014C00030782578000000004C696E6B2050617206
:1014D000746E65722068616C66206475706C6578E6
:1014E00020313030204D62707320526567323620D3
:1014F00030782578000000004C696E6B20506172D6
:10150000746E65722046756C6C206475706C6578BD
:10151000203130204D6270732052656732362030A2
:10152000782578004C696E6B20506172746E65721C
:101530002068616C66206475706C6578203130209D
:101540004D627073205265673236203078257800FE
:0A1550000000000000000000000091
:04000005F9000000FE
:00000001FF
